{
  "_format": "hh-sol-artifact-1",
  "contractName": "Create",
  "sourceName": "contracts/VotingContract.sol",
  "abi": [
    {
      "inputs": [],
      "stateMutability": "nonpayable",
      "type": "constructor"
    },
    {
      "anonymous": false,
      "inputs": [
        {
          "indexed": true,
          "internalType": "uint256",
          "name": "candidateId",
          "type": "uint256"
        },
        {
          "indexed": false,
          "internalType": "string",
          "name": "age",
          "type": "string"
        },
        {
          "indexed": false,
          "internalType": "string",
          "name": "name",
          "type": "string"
        },
        {
          "indexed": false,
          "internalType": "string",
          "name": "image",
          "type": "string"
        },
        {
          "indexed": false,
          "internalType": "uint256",
          "name": "voteCount",
          "type": "uint256"
        },
        {
          "indexed": false,
          "internalType": "address",
          "name": "_address",
          "type": "address"
        },
        {
          "indexed": false,
          "internalType": "string",
          "name": "ipfs",
          "type": "string"
        }
      ],
      "name": "CandidateCreate",
      "type": "event"
    },
    {
      "anonymous": false,
      "inputs": [
        {
          "indexed": true,
          "internalType": "uint256",
          "name": "voter_voterId",
          "type": "uint256"
        },
        {
          "indexed": false,
          "internalType": "string",
          "name": "voter_name",
          "type": "string"
        },
        {
          "indexed": false,
          "internalType": "string",
          "name": "voter_image",
          "type": "string"
        },
        {
          "indexed": false,
          "internalType": "address",
          "name": "voter_address",
          "type": "address"
        },
        {
          "indexed": false,
          "internalType": "uint256",
          "name": "voter_allowed",
          "type": "uint256"
        },
        {
          "indexed": false,
          "internalType": "bool",
          "name": "voter_voted",
          "type": "bool"
        },
        {
          "indexed": false,
          "internalType": "uint256",
          "name": "voter_vote",
          "type": "uint256"
        },
        {
          "indexed": false,
          "internalType": "string",
          "name": "voter_ipfs",
          "type": "string"
        }
      ],
      "name": "VoterCreated",
      "type": "event"
    },
    {
      "inputs": [],
      "name": "VotingOrganizer",
      "outputs": [
        {
          "internalType": "address",
          "name": "",
          "type": "address"
        }
      ],
      "stateMutability": "view",
      "type": "function"
    },
    {
      "inputs": [],
      "name": "_candidateId",
      "outputs": [
        {
          "internalType": "uint256",
          "name": "_value",
          "type": "uint256"
        }
      ],
      "stateMutability": "view",
      "type": "function"
    },
    {
      "inputs": [],
      "name": "_voterId",
      "outputs": [
        {
          "internalType": "uint256",
          "name": "_value",
          "type": "uint256"
        }
      ],
      "stateMutability": "view",
      "type": "function"
    },
    {
      "inputs": [
        {
          "internalType": "uint256",
          "name": "",
          "type": "uint256"
        }
      ],
      "name": "candidateAddresses",
      "outputs": [
        {
          "internalType": "address",
          "name": "",
          "type": "address"
        }
      ],
      "stateMutability": "view",
      "type": "function"
    },
    {
      "inputs": [
        {
          "internalType": "address",
          "name": "",
          "type": "address"
        }
      ],
      "name": "candidates",
      "outputs": [
        {
          "internalType": "uint256",
          "name": "candidateId",
          "type": "uint256"
        },
        {
          "internalType": "string",
          "name": "age",
          "type": "string"
        },
        {
          "internalType": "string",
          "name": "name",
          "type": "string"
        },
        {
          "internalType": "string",
          "name": "image",
          "type": "string"
        },
        {
          "internalType": "uint256",
          "name": "voteCount",
          "type": "uint256"
        },
        {
          "internalType": "address",
          "name": "_address",
          "type": "address"
        },
        {
          "internalType": "string",
          "name": "ipfs",
          "type": "string"
        }
      ],
      "stateMutability": "view",
      "type": "function"
    },
    {
      "inputs": [],
      "name": "getCandidate",
      "outputs": [
        {
          "internalType": "address[]",
          "name": "",
          "type": "address[]"
        }
      ],
      "stateMutability": "view",
      "type": "function"
    },
    {
      "inputs": [],
      "name": "getCandidateLength",
      "outputs": [
        {
          "internalType": "uint256",
          "name": "",
          "type": "uint256"
        }
      ],
      "stateMutability": "view",
      "type": "function"
    },
    {
      "inputs": [],
      "name": "getVotedVoterList",
      "outputs": [
        {
          "internalType": "address[]",
          "name": "",
          "type": "address[]"
        }
      ],
      "stateMutability": "view",
      "type": "function"
    },
    {
      "inputs": [],
      "name": "getVoterLength",
      "outputs": [
        {
          "internalType": "uint256",
          "name": "",
          "type": "uint256"
        }
      ],
      "stateMutability": "view",
      "type": "function"
    },
    {
      "inputs": [],
      "name": "getVoterList",
      "outputs": [
        {
          "internalType": "address[]",
          "name": "",
          "type": "address[]"
        }
      ],
      "stateMutability": "view",
      "type": "function"
    },
    {
      "inputs": [
        {
          "internalType": "address",
          "name": "_address",
          "type": "address"
        }
      ],
      "name": "getVoterdata",
      "outputs": [
        {
          "internalType": "uint256",
          "name": "",
          "type": "uint256"
        },
        {
          "internalType": "string",
          "name": "",
          "type": "string"
        },
        {
          "internalType": "string",
          "name": "",
          "type": "string"
        },
        {
          "internalType": "address",
          "name": "",
          "type": "address"
        },
        {
          "internalType": "uint256",
          "name": "",
          "type": "uint256"
        },
        {
          "internalType": "bool",
          "name": "",
          "type": "bool"
        }
      ],
      "stateMutability": "view",
      "type": "function"
    },
    {
      "inputs": [
        {
          "internalType": "address",
          "name": "_address",
          "type": "address"
        }
      ],
      "name": "getcandidatedata",
      "outputs": [
        {
          "internalType": "string",
          "name": "",
          "type": "string"
        },
        {
          "internalType": "string",
          "name": "",
          "type": "string"
        },
        {
          "internalType": "uint256",
          "name": "",
          "type": "uint256"
        },
        {
          "internalType": "string",
          "name": "",
          "type": "string"
        },
        {
          "internalType": "uint256",
          "name": "",
          "type": "uint256"
        },
        {
          "internalType": "string",
          "name": "",
          "type": "string"
        },
        {
          "internalType": "address",
          "name": "",
          "type": "address"
        }
      ],
      "stateMutability": "view",
      "type": "function"
    },
    {
      "inputs": [
        {
          "internalType": "address",
          "name": "_address",
          "type": "address"
        },
        {
          "internalType": "string",
          "name": "_age",
          "type": "string"
        },
        {
          "internalType": "string",
          "name": "_name",
          "type": "string"
        },
        {
          "internalType": "string",
          "name": "_image",
          "type": "string"
        },
        {
          "internalType": "string",
          "name": "_ipfs",
          "type": "string"
        }
      ],
      "name": "setCandidate",
      "outputs": [],
      "stateMutability": "nonpayable",
      "type": "function"
    },
    {
      "inputs": [
        {
          "internalType": "address",
          "name": "_candidateAddress",
          "type": "address"
        },
        {
          "internalType": "uint256",
          "name": "_candidateVoteId",
          "type": "uint256"
        }
      ],
      "name": "vote",
      "outputs": [],
      "stateMutability": "nonpayable",
      "type": "function"
    },
    {
      "inputs": [
        {
          "internalType": "uint256",
          "name": "",
          "type": "uint256"
        }
      ],
      "name": "votedVoters",
      "outputs": [
        {
          "internalType": "address",
          "name": "",
          "type": "address"
        }
      ],
      "stateMutability": "view",
      "type": "function"
    },
    {
      "inputs": [
        {
          "internalType": "address",
          "name": "_address",
          "type": "address"
        },
        {
          "internalType": "string",
          "name": "_name",
          "type": "string"
        },
        {
          "internalType": "string",
          "name": "_image",
          "type": "string"
        },
        {
          "internalType": "string",
          "name": "_ipfs",
          "type": "string"
        }
      ],
      "name": "voterRight",
      "outputs": [],
      "stateMutability": "nonpayable",
      "type": "function"
    },
    {
      "inputs": [
        {
          "internalType": "address",
          "name": "",
          "type": "address"
        }
      ],
      "name": "voters",
      "outputs": [
        {
          "internalType": "uint256",
          "name": "voter_voterId",
          "type": "uint256"
        },
        {
          "internalType": "string",
          "name": "voter_name",
          "type": "string"
        },
        {
          "internalType": "string",
          "name": "voter_image",
          "type": "string"
        },
        {
          "internalType": "address",
          "name": "voter_address",
          "type": "address"
        },
        {
          "internalType": "uint256",
          "name": "voter_allowed",
          "type": "uint256"
        },
        {
          "internalType": "bool",
          "name": "voter_voted",
          "type": "bool"
        },
        {
          "internalType": "uint256",
          "name": "voter_vote",
          "type": "uint256"
        },
        {
          "internalType": "string",
          "name": "voter_ipfs",
          "type": "string"
        }
      ],
      "stateMutability": "view",
      "type": "function"
    },
    {
      "inputs": [
        {
          "internalType": "uint256",
          "name": "",
          "type": "uint256"
        }
      ],
      "name": "votersAddresses",
      "outputs": [
        {
          "internalType": "address",
          "name": "",
          "type": "address"
        }
      ],
      "stateMutability": "view",
      "type": "function"
    }
  ],
  "bytecode": "0x6080604052348015600f57600080fd5b5033600260006101000a81548173ffffffffffffffffffffffffffffffffffffffff021916908373ffffffffffffffffffffffffffffffffffffffff160217905550612818806100606000396000f3fe608060405234801561001057600080fd5b50600436106101165760003560e01c8063a1870d71116100a2578063b9be315211610071578063b9be31521461030a578063c5036fd414610328578063c91ec7121461035d578063d55d73c514610379578063f7522a83146103a957610116565b8063a1870d7114610261578063a3ec138d14610297578063a7388967146102ce578063b28d92ae146102ec57610116565b80635f74bbde116100e95780635f74bbde146101a357806370218b85146101bf5780637831ffb3146101dd5780638ab66a901461020d5780638e9456851461024357610116565b80630361419e1461011b57806305ad45a4146101375780631af106791461015557806338736d4614610185575b600080fd5b61013560048036038101906101309190611adc565b6103c7565b005b61013f610675565b60405161014c9190611bb0565b60405180910390f35b61016f600480360381019061016a9190611bf7565b610682565b60405161017c9190611c33565b60405180910390f35b61018d6106c1565b60405161019a9190611c33565b60405180910390f35b6101bd60048036038101906101b89190611c4e565b6106e7565b005b6101c76108ae565b6040516101d49190611d4c565b60405180910390f35b6101f760048036038101906101f29190611bf7565b61093c565b6040516102049190611c33565b60405180910390f35b61022760048036038101906102229190611d6e565b61097b565b60405161023a9796959493929190611e1a565b60405180910390f35b61024b610bfd565b6040516102589190611d4c565b60405180910390f35b61027b60048036038101906102769190611d6e565b610c8b565b60405161028e9796959493929190611ea5565b60405180910390f35b6102b160048036038101906102ac9190611d6e565b6110d2565b6040516102c5989796959493929190611f4b565b60405180910390f35b6102d66112df565b6040516102e39190611bb0565b60405180910390f35b6102f46112eb565b6040516103019190611d4c565b60405180910390f35b610312611379565b60405161031f9190611bb0565b60405180910390f35b610342600480360381019061033d9190611d6e565b611385565b60405161035496959493929190611fde565b60405180910390f35b6103776004803603810190610372919061204d565b611679565b005b610393600480360381019061038e9190611bf7565b6118b4565b6040516103a09190611c33565b60405180910390f35b6103b16118f3565b6040516103be9190611bb0565b60405180910390f35b3373ffffffffffffffffffffffffffffffffffffffff16600260009054906101000a900473ffffffffffffffffffffffffffffffffffffffff1673ffffffffffffffffffffffffffffffffffffffff1614610457576040517f08c379a000000000000000000000000000000000000000000000000000000000815260040161044e906121aa565b60405180910390fd5b6104616000611900565b600061046d6000611916565b90506000600760008773ffffffffffffffffffffffffffffffffffffffff1673ffffffffffffffffffffffffffffffffffffffff168152602001908152602001600020905060008160040154146104f9576040517f08c379a00000000000000000000000000000000000000000000000000000000081526004016104f090612216565b60405180910390fd5b60018160040181905550848160010190816105149190612442565b50838160020190816105269190612442565b50858160030160006101000a81548173ffffffffffffffffffffffffffffffffffffffff021916908373ffffffffffffffffffffffffffffffffffffffff1602179055508181600001819055506103e8816006018190555060008160050160006101000a81548160ff021916908315150217905550828160070190816105ac9190612442565b506006869080600181540180825580915050600190039060005260206000200160009091909190916101000a81548173ffffffffffffffffffffffffffffffffffffffff021916908373ffffffffffffffffffffffffffffffffffffffff160217905550817ff5f39971dd62d9929e3a9feaa6bb77fe7c7da0001babff8a65a7e51ad0201c1986868985600401548660050160009054906101000a900460ff1687600601548a6040516106659796959493929190612514565b60405180910390a2505050505050565b6000600680549050905090565b6006818154811061069257600080fd5b906000526020600020016000915054906101000a900473ffffffffffffffffffffffffffffffffffffffff1681565b600260009054906101000a900473ffffffffffffffffffffffffffffffffffffffff1681565b6000600760003373ffffffffffffffffffffffffffffffffffffffff1673ffffffffffffffffffffffffffffffffffffffff16815260200190815260200160002090508060050160009054906101000a900460ff161561077c576040517f08c379a0000000000000000000000000000000000000000000000000000000008152600401610773906125e4565b60405180910390fd5b60008160040154036107c3576040517f08c379a00000000000000000000000000000000000000000000000000000000081526004016107ba90612650565b60405180910390fd5b60018160050160006101000a81548160ff0219169083151502179055508181600601819055506005339080600181540180825580915050600190039060005260206000200160009091909190916101000a81548173ffffffffffffffffffffffffffffffffffffffff021916908373ffffffffffffffffffffffffffffffffffffffff1602179055508060040154600460008573ffffffffffffffffffffffffffffffffffffffff1673ffffffffffffffffffffffffffffffffffffffff16815260200190815260200160002060040160008282546108a2919061269f565b92505081905550505050565b6060600380548060200260200160405190810160405280929190818152602001828054801561093257602002820191906000526020600020905b8160009054906101000a900473ffffffffffffffffffffffffffffffffffffffff1673ffffffffffffffffffffffffffffffffffffffff16815260200190600101908083116108e8575b5050505050905090565b6005818154811061094c57600080fd5b906000526020600020016000915054906101000a900473ffffffffffffffffffffffffffffffffffffffff1681565b60046020528060005260406000206000915090508060000154908060010180546109a490612265565b80601f01602080910402602001604051908101604052809291908181526020018280546109d090612265565b8015610a1d5780601f106109f257610100808354040283529160200191610a1d565b820191906000526020600020905b815481529060010190602001808311610a0057829003601f168201915b505050505090806002018054610a3290612265565b80601f0160208091040260200160405190810160405280929190818152602001828054610a5e90612265565b8015610aab5780601f10610a8057610100808354040283529160200191610aab565b820191906000526020600020905b815481529060010190602001808311610a8e57829003601f168201915b505050505090806003018054610ac090612265565b80601f0160208091040260200160405190810160405280929190818152602001828054610aec90612265565b8015610b395780601f10610b0e57610100808354040283529160200191610b39565b820191906000526020600020905b815481529060010190602001808311610b1c57829003601f168201915b5050505050908060040154908060050160009054906101000a900473ffffffffffffffffffffffffffffffffffffffff1690806006018054610b7a90612265565b80601f0160208091040260200160405190810160405280929190818152602001828054610ba690612265565b8015610bf35780601f10610bc857610100808354040283529160200191610bf3565b820191906000526020600020905b815481529060010190602001808311610bd657829003601f168201915b5050505050905087565b60606005805480602002602001604051908101604052809291908181526020018280548015610c8157602002820191906000526020600020905b8160009054906101000a900473ffffffffffffffffffffffffffffffffffffffff1673ffffffffffffffffffffffffffffffffffffffff1681526020019060010190808311610c37575b5050505050905090565b60608060006060600060606000600460008973ffffffffffffffffffffffffffffffffffffffff1673ffffffffffffffffffffffffffffffffffffffff168152602001908152602001600020600101600460008a73ffffffffffffffffffffffffffffffffffffffff1673ffffffffffffffffffffffffffffffffffffffff168152602001908152602001600020600201600460008b73ffffffffffffffffffffffffffffffffffffffff1673ffffffffffffffffffffffffffffffffffffffff16815260200190815260200160002060000154600460008c73ffffffffffffffffffffffffffffffffffffffff1673ffffffffffffffffffffffffffffffffffffffff168152602001908152602001600020600301600460008d73ffffffffffffffffffffffffffffffffffffffff1673ffffffffffffffffffffffffffffffffffffffff16815260200190815260200160002060040154600460008e73ffffffffffffffffffffffffffffffffffffffff1673ffffffffffffffffffffffffffffffffffffffff168152602001908152602001600020600601600460008f73ffffffffffffffffffffffffffffffffffffffff1673ffffffffffffffffffffffffffffffffffffffff16815260200190815260200160002060050160009054906101000a900473ffffffffffffffffffffffffffffffffffffffff16868054610e9590612265565b80601f0160208091040260200160405190810160405280929190818152602001828054610ec190612265565b8015610f0e5780601f10610ee357610100808354040283529160200191610f0e565b820191906000526020600020905b815481529060010190602001808311610ef157829003601f168201915b50505050509650858054610f2190612265565b80601f0160208091040260200160405190810160405280929190818152602001828054610f4d90612265565b8015610f9a5780601f10610f6f57610100808354040283529160200191610f9a565b820191906000526020600020905b815481529060010190602001808311610f7d57829003601f168201915b50505050509550838054610fad90612265565b80601f0160208091040260200160405190810160405280929190818152602001828054610fd990612265565b80156110265780601f10610ffb57610100808354040283529160200191611026565b820191906000526020600020905b81548152906001019060200180831161100957829003601f168201915b5050505050935081805461103990612265565b80601f016020809104026020016040519081016040528092919081815260200182805461106590612265565b80156110b25780601f10611087576101008083540402835291602001916110b2565b820191906000526020600020905b81548152906001019060200180831161109557829003601f168201915b505050505091509650965096509650965096509650919395979092949650565b60076020528060005260406000206000915090508060000154908060010180546110fb90612265565b80601f016020809104026020016040519081016040528092919081815260200182805461112790612265565b80156111745780601f1061114957610100808354040283529160200191611174565b820191906000526020600020905b81548152906001019060200180831161115757829003601f168201915b50505050509080600201805461118990612265565b80601f01602080910402602001604051908101604052809291908181526020018280546111b590612265565b80156112025780601f106111d757610100808354040283529160200191611202565b820191906000526020600020905b8154815290600101906020018083116111e557829003601f168201915b5050505050908060030160009054906101000a900473ffffffffffffffffffffffffffffffffffffffff16908060040154908060050160009054906101000a900460ff169080600601549080600701805461125c90612265565b80601f016020809104026020016040519081016040528092919081815260200182805461128890612265565b80156112d55780601f106112aa576101008083540402835291602001916112d5565b820191906000526020600020905b8154815290600101906020018083116112b857829003601f168201915b5050505050905088565b60018060000154905081565b6060600680548060200260200160405190810160405280929190818152602001828054801561136f57602002820191906000526020600020905b8160009054906101000a900473ffffffffffffffffffffffffffffffffffffffff1673ffffffffffffffffffffffffffffffffffffffff1681526020019060010190808311611325575b5050505050905090565b60008060000154905081565b60006060806000806000600760008873ffffffffffffffffffffffffffffffffffffffff1673ffffffffffffffffffffffffffffffffffffffff16815260200190815260200160002060000154600760008973ffffffffffffffffffffffffffffffffffffffff1673ffffffffffffffffffffffffffffffffffffffff168152602001908152602001600020600101600760008a73ffffffffffffffffffffffffffffffffffffffff1673ffffffffffffffffffffffffffffffffffffffff168152602001908152602001600020600201600760008b73ffffffffffffffffffffffffffffffffffffffff1673ffffffffffffffffffffffffffffffffffffffff16815260200190815260200160002060030160009054906101000a900473ffffffffffffffffffffffffffffffffffffffff16600760008c73ffffffffffffffffffffffffffffffffffffffff1673ffffffffffffffffffffffffffffffffffffffff16815260200190815260200160002060040154600760008d73ffffffffffffffffffffffffffffffffffffffff1673ffffffffffffffffffffffffffffffffffffffff16815260200190815260200160002060050160009054906101000a900460ff1684805461155890612265565b80601f016020809104026020016040519081016040528092919081815260200182805461158490612265565b80156115d15780601f106115a6576101008083540402835291602001916115d1565b820191906000526020600020905b8154815290600101906020018083116115b457829003601f168201915b505050505094508380546115e490612265565b80601f016020809104026020016040519081016040528092919081815260200182805461161090612265565b801561165d5780601f106116325761010080835404028352916020019161165d565b820191906000526020600020905b81548152906001019060200180831161164057829003601f168201915b5050505050935095509550955095509550955091939550919395565b3373ffffffffffffffffffffffffffffffffffffffff16600260009054906101000a900473ffffffffffffffffffffffffffffffffffffffff1673ffffffffffffffffffffffffffffffffffffffff1614611709576040517f08c379a000000000000000000000000000000000000000000000000000000000815260040161170090612745565b60405180910390fd5b6117136001611900565b600061171f6001611916565b90506000600460008873ffffffffffffffffffffffffffffffffffffffff1673ffffffffffffffffffffffffffffffffffffffff1681526020019081526020016000209050858160010190816117759190612442565b50848160020190816117879190612442565b50818160000181905550838160030190816117a29190612442565b5060008160040181905550868160050160006101000a81548173ffffffffffffffffffffffffffffffffffffffff021916908373ffffffffffffffffffffffffffffffffffffffff160217905550828160060190816118019190612442565b506003879080600181540180825580915050600190039060005260206000200160009091909190916101000a81548173ffffffffffffffffffffffffffffffffffffffff021916908373ffffffffffffffffffffffffffffffffffffffff160217905550817fd297f12b256bb8485a6013fb5e302017018123e99a0ebb20756c09e1707b4b9087878785600401548c896040516118a396959493929190612765565b60405180910390a250505050505050565b600381815481106118c457600080fd5b906000526020600020016000915054906101000a900473ffffffffffffffffffffffffffffffffffffffff1681565b6000600380549050905090565b6001816000016000828254019250508190555050565b600081600001549050919050565b6000604051905090565b600080fd5b600080fd5b600073ffffffffffffffffffffffffffffffffffffffff82169050919050565b600061196382611938565b9050919050565b61197381611958565b811461197e57600080fd5b50565b6000813590506119908161196a565b92915050565b600080fd5b600080fd5b6000601f19601f8301169050919050565b7f4e487b7100000000000000000000000000000000000000000000000000000000600052604160045260246000fd5b6119e9826119a0565b810181811067ffffffffffffffff82111715611a0857611a076119b1565b5b80604052505050565b6000611a1b611924565b9050611a2782826119e0565b919050565b600067ffffffffffffffff821115611a4757611a466119b1565b5b611a50826119a0565b9050602081019050919050565b82818337600083830152505050565b6000611a7f611a7a84611a2c565b611a11565b905082815260208101848484011115611a9b57611a9a61199b565b5b611aa6848285611a5d565b509392505050565b600082601f830112611ac357611ac2611996565b5b8135611ad3848260208601611a6c565b91505092915050565b60008060008060808587031215611af657611af561192e565b5b6000611b0487828801611981565b945050602085013567ffffffffffffffff811115611b2557611b24611933565b5b611b3187828801611aae565b935050604085013567ffffffffffffffff811115611b5257611b51611933565b5b611b5e87828801611aae565b925050606085013567ffffffffffffffff811115611b7f57611b7e611933565b5b611b8b87828801611aae565b91505092959194509250565b6000819050919050565b611baa81611b97565b82525050565b6000602082019050611bc56000830184611ba1565b92915050565b611bd481611b97565b8114611bdf57600080fd5b50565b600081359050611bf181611bcb565b92915050565b600060208284031215611c0d57611c0c61192e565b5b6000611c1b84828501611be2565b91505092915050565b611c2d81611958565b82525050565b6000602082019050611c486000830184611c24565b92915050565b60008060408385031215611c6557611c6461192e565b5b6000611c7385828601611981565b9250506020611c8485828601611be2565b9150509250929050565b600081519050919050565b600082825260208201905092915050565b6000819050602082019050919050565b611cc381611958565b82525050565b6000611cd58383611cba565b60208301905092915050565b6000602082019050919050565b6000611cf982611c8e565b611d038185611c99565b9350611d0e83611caa565b8060005b83811015611d3f578151611d268882611cc9565b9750611d3183611ce1565b925050600181019050611d12565b5085935050505092915050565b60006020820190508181036000830152611d668184611cee565b905092915050565b600060208284031215611d8457611d8361192e565b5b6000611d9284828501611981565b91505092915050565b600081519050919050565b600082825260208201905092915050565b60005b83811015611dd5578082015181840152602081019050611dba565b60008484015250505050565b6000611dec82611d9b565b611df68185611da6565b9350611e06818560208601611db7565b611e0f816119a0565b840191505092915050565b600060e082019050611e2f600083018a611ba1565b8181036020830152611e418189611de1565b90508181036040830152611e558188611de1565b90508181036060830152611e698187611de1565b9050611e786080830186611ba1565b611e8560a0830185611c24565b81810360c0830152611e978184611de1565b905098975050505050505050565b600060e0820190508181036000830152611ebf818a611de1565b90508181036020830152611ed38189611de1565b9050611ee26040830188611ba1565b8181036060830152611ef48187611de1565b9050611f036080830186611ba1565b81810360a0830152611f158185611de1565b9050611f2460c0830184611c24565b98975050505050505050565b60008115159050919050565b611f4581611f30565b82525050565b600061010082019050611f61600083018b611ba1565b8181036020830152611f73818a611de1565b90508181036040830152611f878189611de1565b9050611f966060830188611c24565b611fa36080830187611ba1565b611fb060a0830186611f3c565b611fbd60c0830185611ba1565b81810360e0830152611fcf8184611de1565b90509998505050505050505050565b600060c082019050611ff36000830189611ba1565b81810360208301526120058188611de1565b905081810360408301526120198187611de1565b90506120286060830186611c24565b6120356080830185611ba1565b61204260a0830184611f3c565b979650505050505050565b600080600080600060a086880312156120695761206861192e565b5b600061207788828901611981565b955050602086013567ffffffffffffffff81111561209857612097611933565b5b6120a488828901611aae565b945050604086013567ffffffffffffffff8111156120c5576120c4611933565b5b6120d188828901611aae565b935050606086013567ffffffffffffffff8111156120f2576120f1611933565b5b6120fe88828901611aae565b925050608086013567ffffffffffffffff81111561211f5761211e611933565b5b61212b88828901611aae565b9150509295509295909350565b7f4f6e6c79206f7267616e697a65722063616e206769766520766f74696e67207260008201527f6967687473000000000000000000000000000000000000000000000000000000602082015250565b6000612194602583611da6565b915061219f82612138565b604082019050919050565b600060208201905081810360008301526121c381612187565b9050919050565b7f566f74657220616c72656164792068617320766f74696e672072696768747300600082015250565b6000612200601f83611da6565b915061220b826121ca565b602082019050919050565b6000602082019050818103600083015261222f816121f3565b9050919050565b7f4e487b7100000000000000000000000000000000000000000000000000000000600052602260045260246000fd5b6000600282049050600182168061227d57607f821691505b6020821081036122905761228f612236565b5b50919050565b60008190508160005260206000209050919050565b60006020601f8301049050919050565b600082821b905092915050565b6000600883026122f87fffffffffffffffffffffffffffffffffffffffffffffffffffffffffffffffff826122bb565b61230286836122bb565b95508019841693508086168417925050509392505050565b6000819050919050565b600061233f61233a61233584611b97565b61231a565b611b97565b9050919050565b6000819050919050565b61235983612324565b61236d61236582612346565b8484546122c8565b825550505050565b600090565b612382612375565b61238d818484612350565b505050565b5b818110156123b1576123a660008261237a565b600181019050612393565b5050565b601f8211156123f6576123c781612296565b6123d0846122ab565b810160208510156123df578190505b6123f36123eb856122ab565b830182612392565b50505b505050565b600082821c905092915050565b6000612419600019846008026123fb565b1980831691505092915050565b60006124328383612408565b9150826002028217905092915050565b61244b82611d9b565b67ffffffffffffffff811115612464576124636119b1565b5b61246e8254612265565b6124798282856123b5565b600060209050601f8311600181146124ac576000841561249a578287015190505b6124a48582612426565b86555061250c565b601f1984166124ba86612296565b60005b828110156124e2578489015182556001820191506020850194506020810190506124bd565b868310156124ff57848901516124fb601f891682612408565b8355505b6001600288020188555050505b505050505050565b600060e082019050818103600083015261252e818a611de1565b905081810360208301526125428189611de1565b90506125516040830188611c24565b61255e6060830187611ba1565b61256b6080830186611f3c565b61257860a0830185611ba1565b81810360c083015261258a8184611de1565b905098975050505050505050565b7f596f75206861766520616c726561647920766f74656400000000000000000000600082015250565b60006125ce601683611da6565b91506125d982612598565b602082019050919050565b600060208201905081810360008301526125fd816125c1565b9050919050565b7f596f7520646f206e6f74206861766520766f74696e6720726967687473000000600082015250565b600061263a601d83611da6565b915061264582612604565b602082019050919050565b600060208201905081810360008301526126698161262d565b9050919050565b7f4e487b7100000000000000000000000000000000000000000000000000000000600052601160045260246000fd5b60006126aa82611b97565b91506126b583611b97565b92508282019050808211156126cd576126cc612670565b5b92915050565b7f4f6e6c79206f7267616e697a65722063616e206372656174652063616e64696460008201527f6174657300000000000000000000000000000000000000000000000000000000602082015250565b600061272f602483611da6565b915061273a826126d3565b604082019050919050565b6000602082019050818103600083015261275e81612722565b9050919050565b600060c082019050818103600083015261277f8189611de1565b905081810360208301526127938188611de1565b905081810360408301526127a78187611de1565b90506127b66060830186611ba1565b6127c36080830185611c24565b81810360a08301526127d58184611de1565b905097965050505050505056fea26469706673582212209029eee23f292cc3dd3d325107b1357161c056d4d8e45c3a0d5eb09ab5fe22ed64736f6c634300081c0033",
  "linkReferences": {},
  "deployedLinkReferences": {}
}