{
  "_format": "hh-sol-artifact-1",
  "contractName": "Create",
  "sourceName": "contracts/VotingContract.sol",
  "abi": [
    {
      "inputs": [],
      "stateMutability": "nonpayable",
      "type": "constructor"
    },
    {
      "anonymous": false,
      "inputs": [
        {
          "indexed": true,
          "internalType": "uint256",
          "name": "candidateId",
          "type": "uint256"
        },
        {
          "indexed": false,
          "internalType": "string",
          "name": "age",
          "type": "string"
        },
        {
          "indexed": false,
          "internalType": "string",
          "name": "name",
          "type": "string"
        },
        {
          "indexed": false,
          "internalType": "string",
          "name": "image",
          "type": "string"
        },
        {
          "indexed": false,
          "internalType": "uint256",
          "name": "voteCount",
          "type": "uint256"
        },
        {
          "indexed": false,
          "internalType": "address",
          "name": "_address",
          "type": "address"
        },
        {
          "indexed": false,
          "internalType": "string",
          "name": "ipfs",
          "type": "string"
        }
      ],
      "name": "CandidateCreate",
      "type": "event"
    },
    {
      "anonymous": false,
      "inputs": [
        {
          "indexed": true,
          "internalType": "uint256",
          "name": "voter_voterId",
          "type": "uint256"
        },
        {
          "indexed": false,
          "internalType": "string",
          "name": "voter_name",
          "type": "string"
        },
        {
          "indexed": false,
          "internalType": "string",
          "name": "voter_image",
          "type": "string"
        },
        {
          "indexed": false,
          "internalType": "address",
          "name": "voter_address",
          "type": "address"
        },
        {
          "indexed": false,
          "internalType": "uint256",
          "name": "voter_allowed",
          "type": "uint256"
        },
        {
          "indexed": false,
          "internalType": "bool",
          "name": "voter_voted",
          "type": "bool"
        },
        {
          "indexed": false,
          "internalType": "uint256",
          "name": "voter_vote",
          "type": "uint256"
        },
        {
          "indexed": false,
          "internalType": "string",
          "name": "voter_ipfs",
          "type": "string"
        }
      ],
      "name": "VoterCreated",
      "type": "event"
    },
    {
      "anonymous": false,
      "inputs": [
        {
          "indexed": true,
          "internalType": "address",
          "name": "winnerAddress",
          "type": "address"
        },
        {
          "indexed": false,
          "internalType": "string",
          "name": "name",
          "type": "string"
        },
        {
          "indexed": false,
          "internalType": "uint256",
          "name": "voteCount",
          "type": "uint256"
        }
      ],
      "name": "WinnerDeclared",
      "type": "event"
    },
    {
      "inputs": [],
      "name": "VotingOrganizer",
      "outputs": [
        {
          "internalType": "address",
          "name": "",
          "type": "address"
        }
      ],
      "stateMutability": "view",
      "type": "function"
    },
    {
      "inputs": [],
      "name": "_candidateId",
      "outputs": [
        {
          "internalType": "uint256",
          "name": "_value",
          "type": "uint256"
        }
      ],
      "stateMutability": "view",
      "type": "function"
    },
    {
      "inputs": [],
      "name": "_voterId",
      "outputs": [
        {
          "internalType": "uint256",
          "name": "_value",
          "type": "uint256"
        }
      ],
      "stateMutability": "view",
      "type": "function"
    },
    {
      "inputs": [
        {
          "internalType": "uint256",
          "name": "",
          "type": "uint256"
        }
      ],
      "name": "candidateAddresses",
      "outputs": [
        {
          "internalType": "address",
          "name": "",
          "type": "address"
        }
      ],
      "stateMutability": "view",
      "type": "function"
    },
    {
      "inputs": [
        {
          "internalType": "address",
          "name": "",
          "type": "address"
        }
      ],
      "name": "candidates",
      "outputs": [
        {
          "internalType": "uint256",
          "name": "candidateId",
          "type": "uint256"
        },
        {
          "internalType": "string",
          "name": "age",
          "type": "string"
        },
        {
          "internalType": "string",
          "name": "name",
          "type": "string"
        },
        {
          "internalType": "string",
          "name": "image",
          "type": "string"
        },
        {
          "internalType": "uint256",
          "name": "voteCount",
          "type": "uint256"
        },
        {
          "internalType": "address",
          "name": "_address",
          "type": "address"
        },
        {
          "internalType": "string",
          "name": "ipfs",
          "type": "string"
        }
      ],
      "stateMutability": "view",
      "type": "function"
    },
    {
      "inputs": [],
      "name": "declareWinner",
      "outputs": [],
      "stateMutability": "nonpayable",
      "type": "function"
    },
    {
      "inputs": [],
      "name": "getCandidate",
      "outputs": [
        {
          "internalType": "address[]",
          "name": "",
          "type": "address[]"
        }
      ],
      "stateMutability": "view",
      "type": "function"
    },
    {
      "inputs": [],
      "name": "getCandidateLength",
      "outputs": [
        {
          "internalType": "uint256",
          "name": "",
          "type": "uint256"
        }
      ],
      "stateMutability": "view",
      "type": "function"
    },
    {
      "inputs": [],
      "name": "getVotedVoterList",
      "outputs": [
        {
          "internalType": "address[]",
          "name": "",
          "type": "address[]"
        }
      ],
      "stateMutability": "view",
      "type": "function"
    },
    {
      "inputs": [],
      "name": "getVoterLength",
      "outputs": [
        {
          "internalType": "uint256",
          "name": "",
          "type": "uint256"
        }
      ],
      "stateMutability": "view",
      "type": "function"
    },
    {
      "inputs": [],
      "name": "getVoterList",
      "outputs": [
        {
          "internalType": "address[]",
          "name": "",
          "type": "address[]"
        }
      ],
      "stateMutability": "view",
      "type": "function"
    },
    {
      "inputs": [
        {
          "internalType": "address",
          "name": "_address",
          "type": "address"
        }
      ],
      "name": "getVoterdata",
      "outputs": [
        {
          "internalType": "uint256",
          "name": "",
          "type": "uint256"
        },
        {
          "internalType": "string",
          "name": "",
          "type": "string"
        },
        {
          "internalType": "string",
          "name": "",
          "type": "string"
        },
        {
          "internalType": "address",
          "name": "",
          "type": "address"
        },
        {
          "internalType": "uint256",
          "name": "",
          "type": "uint256"
        },
        {
          "internalType": "bool",
          "name": "",
          "type": "bool"
        }
      ],
      "stateMutability": "view",
      "type": "function"
    },
    {
      "inputs": [],
      "name": "getWinnerData",
      "outputs": [
        {
          "internalType": "address",
          "name": "",
          "type": "address"
        },
        {
          "internalType": "string",
          "name": "",
          "type": "string"
        },
        {
          "internalType": "uint256",
          "name": "",
          "type": "uint256"
        }
      ],
      "stateMutability": "view",
      "type": "function"
    },
    {
      "inputs": [
        {
          "internalType": "address",
          "name": "_address",
          "type": "address"
        }
      ],
      "name": "getcandidatedata",
      "outputs": [
        {
          "internalType": "string",
          "name": "",
          "type": "string"
        },
        {
          "internalType": "string",
          "name": "",
          "type": "string"
        },
        {
          "internalType": "uint256",
          "name": "",
          "type": "uint256"
        },
        {
          "internalType": "string",
          "name": "",
          "type": "string"
        },
        {
          "internalType": "uint256",
          "name": "",
          "type": "uint256"
        },
        {
          "internalType": "string",
          "name": "",
          "type": "string"
        },
        {
          "internalType": "address",
          "name": "",
          "type": "address"
        }
      ],
      "stateMutability": "view",
      "type": "function"
    },
    {
      "inputs": [
        {
          "internalType": "address",
          "name": "_address",
          "type": "address"
        },
        {
          "internalType": "string",
          "name": "_age",
          "type": "string"
        },
        {
          "internalType": "string",
          "name": "_name",
          "type": "string"
        },
        {
          "internalType": "string",
          "name": "_image",
          "type": "string"
        },
        {
          "internalType": "string",
          "name": "_ipfs",
          "type": "string"
        }
      ],
      "name": "setCandidate",
      "outputs": [],
      "stateMutability": "nonpayable",
      "type": "function"
    },
    {
      "inputs": [
        {
          "internalType": "uint256",
          "name": "_endTime",
          "type": "uint256"
        }
      ],
      "name": "setVotingEndTime",
      "outputs": [],
      "stateMutability": "nonpayable",
      "type": "function"
    },
    {
      "inputs": [
        {
          "internalType": "address",
          "name": "_candidateAddress",
          "type": "address"
        },
        {
          "internalType": "uint256",
          "name": "_candidateVoteId",
          "type": "uint256"
        }
      ],
      "name": "vote",
      "outputs": [],
      "stateMutability": "nonpayable",
      "type": "function"
    },
    {
      "inputs": [
        {
          "internalType": "uint256",
          "name": "",
          "type": "uint256"
        }
      ],
      "name": "votedVoters",
      "outputs": [
        {
          "internalType": "address",
          "name": "",
          "type": "address"
        }
      ],
      "stateMutability": "view",
      "type": "function"
    },
    {
      "inputs": [
        {
          "internalType": "address",
          "name": "_address",
          "type": "address"
        },
        {
          "internalType": "string",
          "name": "_name",
          "type": "string"
        },
        {
          "internalType": "string",
          "name": "_image",
          "type": "string"
        },
        {
          "internalType": "string",
          "name": "_ipfs",
          "type": "string"
        }
      ],
      "name": "voterRight",
      "outputs": [],
      "stateMutability": "nonpayable",
      "type": "function"
    },
    {
      "inputs": [
        {
          "internalType": "address",
          "name": "",
          "type": "address"
        }
      ],
      "name": "voters",
      "outputs": [
        {
          "internalType": "uint256",
          "name": "voter_voterId",
          "type": "uint256"
        },
        {
          "internalType": "string",
          "name": "voter_name",
          "type": "string"
        },
        {
          "internalType": "string",
          "name": "voter_image",
          "type": "string"
        },
        {
          "internalType": "address",
          "name": "voter_address",
          "type": "address"
        },
        {
          "internalType": "uint256",
          "name": "voter_allowed",
          "type": "uint256"
        },
        {
          "internalType": "bool",
          "name": "voter_voted",
          "type": "bool"
        },
        {
          "internalType": "uint256",
          "name": "voter_vote",
          "type": "uint256"
        },
        {
          "internalType": "string",
          "name": "voter_ipfs",
          "type": "string"
        }
      ],
      "stateMutability": "view",
      "type": "function"
    },
    {
      "inputs": [
        {
          "internalType": "uint256",
          "name": "",
          "type": "uint256"
        }
      ],
      "name": "votersAddresses",
      "outputs": [
        {
          "internalType": "address",
          "name": "",
          "type": "address"
        }
      ],
      "stateMutability": "view",
      "type": "function"
    },
    {
      "inputs": [],
      "name": "votingEndTime",
      "outputs": [
        {
          "internalType": "uint256",
          "name": "",
          "type": "uint256"
        }
      ],
      "stateMutability": "view",
      "type": "function"
    },
    {
      "inputs": [],
      "name": "winner",
      "outputs": [
        {
          "internalType": "address",
          "name": "",
          "type": "address"
        }
      ],
      "stateMutability": "view",
      "type": "function"
    },
    {
      "inputs": [],
      "name": "winnerDeclared",
      "outputs": [
        {
          "internalType": "bool",
          "name": "",
          "type": "bool"
        }
      ],
      "stateMutability": "view",
      "type": "function"
    }
  ],
  "bytecode": "0x6080604052348015600f57600080fd5b5033600260006101000a81548173ffffffffffffffffffffffffffffffffffffffff021916908373ffffffffffffffffffffffffffffffffffffffff160217905550613595806100606000396000f3fe608060405234801561001057600080fd5b50600436106101585760003560e01c8063a1870d71116100c3578063c6092b6b1161007c578063c6092b6b146103e7578063c91ec71214610403578063d55d73c51461041f578063dfbf53ae1461044f578063f7522a831461046d578063ff2d48121461048b57610158565b8063a1870d71146102eb578063a3ec138d14610321578063a738896714610358578063b28d92ae14610376578063b9be315214610394578063c5036fd4146103b257610158565b80633c3418f9116101155780633c3418f91461020d5780635f74bbde1461022d57806370218b85146102495780637831ffb3146102675780638ab66a90146102975780638e945685146102cd57610158565b80630361419e1461015d57806305ad45a41461017957806314034bd2146101975780631af10679146101a15780631ea736e0146101d157806338736d46146101ef575b600080fd5b6101776004803603810190610172919061239a565b6104a9565b005b610181610757565b60405161018e919061246e565b60405180910390f35b61019f610764565b005b6101bb60048036038101906101b691906124b5565b610b41565b6040516101c891906124f1565b60405180910390f35b6101d9610b80565b6040516101e6919061246e565b60405180910390f35b6101f7610b86565b60405161020491906124f1565b60405180910390f35b610215610bac565b6040516102249392919061258b565b60405180910390f35b610247600480360381019061024291906125c9565b610daa565b005b610251611012565b60405161025e91906126c7565b60405180910390f35b610281600480360381019061027c91906124b5565b6110a0565b60405161028e91906124f1565b60405180910390f35b6102b160048036038101906102ac91906126e9565b6110df565b6040516102c49796959493929190612716565b60405180910390f35b6102d5611361565b6040516102e291906126c7565b60405180910390f35b610305600480360381019061030091906126e9565b6113ef565b60405161031897969594939291906127a1565b60405180910390f35b61033b600480360381019061033691906126e9565b611836565b60405161034f989796959493929190612847565b60405180910390f35b610360611a43565b60405161036d919061246e565b60405180910390f35b61037e611a4f565b60405161038b91906126c7565b60405180910390f35b61039c611add565b6040516103a9919061246e565b60405180910390f35b6103cc60048036038101906103c791906126e9565b611ae9565b6040516103de969594939291906128da565b60405180910390f35b61040160048036038101906103fc91906124b5565b611ddd565b005b61041d60048036038101906104189190612949565b611efe565b005b610439600480360381019061043491906124b5565b612139565b60405161044691906124f1565b60405180910390f35b610457612178565b60405161046491906124f1565b60405180910390f35b61047561219e565b604051610482919061246e565b60405180910390f35b6104936121ab565b6040516104a09190612a34565b60405180910390f35b3373ffffffffffffffffffffffffffffffffffffffff16600260009054906101000a900473ffffffffffffffffffffffffffffffffffffffff1673ffffffffffffffffffffffffffffffffffffffff1614610539576040517f08c379a000000000000000000000000000000000000000000000000000000000815260040161053090612ac1565b60405180910390fd5b61054360006121be565b600061054f60006121d4565b90506000600760008773ffffffffffffffffffffffffffffffffffffffff1673ffffffffffffffffffffffffffffffffffffffff168152602001908152602001600020905060008160040154146105db576040517f08c379a00000000000000000000000000000000000000000000000000000000081526004016105d290612b2d565b60405180910390fd5b60018160040181905550848160010190816105f69190612d59565b50838160020190816106089190612d59565b50858160030160006101000a81548173ffffffffffffffffffffffffffffffffffffffff021916908373ffffffffffffffffffffffffffffffffffffffff1602179055508181600001819055506103e8816006018190555060008160050160006101000a81548160ff0219169083151502179055508281600701908161068e9190612d59565b506006869080600181540180825580915050600190039060005260206000200160009091909190916101000a81548173ffffffffffffffffffffffffffffffffffffffff021916908373ffffffffffffffffffffffffffffffffffffffff160217905550817ff5f39971dd62d9929e3a9feaa6bb77fe7c7da0001babff8a65a7e51ad0201c1986868985600401548660050160009054906101000a900460ff1687600601548a6040516107479796959493929190612e2b565b60405180910390a2505050505050565b6000600680549050905090565b6000600854036107a9576040517f08c379a00000000000000000000000000000000000000000000000000000000081526004016107a090612efb565b60405180910390fd5b6008544210156107ee576040517f08c379a00000000000000000000000000000000000000000000000000000000081526004016107e590612f67565b60405180910390fd5b600960149054906101000a900460ff161561083e576040517f08c379a000000000000000000000000000000000000000000000000000000000815260040161083590612fd3565b60405180910390fd5b6001600960146101000a81548160ff021916908315150217905550600080600380549050905060005b818110156109555760006003828154811061088557610884612ff3565b5b9060005260206000200160009054906101000a900473ffffffffffffffffffffffffffffffffffffffff1690506000600460008373ffffffffffffffffffffffffffffffffffffffff1673ffffffffffffffffffffffffffffffffffffffff168152602001908152602001600020600401549050848111156109465780945081600960006101000a81548173ffffffffffffffffffffffffffffffffffffffff021916908373ffffffffffffffffffffffffffffffffffffffff1602179055505b50508080600101915050610867565b50600073ffffffffffffffffffffffffffffffffffffffff16600960009054906101000a900473ffffffffffffffffffffffffffffffffffffffff1673ffffffffffffffffffffffffffffffffffffffff1603610a0357600073ffffffffffffffffffffffffffffffffffffffff167f4fe77c52dc5160af0c40cd54c141bfc62d80b8628d5c5dc5ad46ebdfdd9d43e360006040516109f49190613083565b60405180910390a25050610b3f565b600960009054906101000a900473ffffffffffffffffffffffffffffffffffffffff1673ffffffffffffffffffffffffffffffffffffffff167f4fe77c52dc5160af0c40cd54c141bfc62d80b8628d5c5dc5ad46ebdfdd9d43e360046000600960009054906101000a900473ffffffffffffffffffffffffffffffffffffffff1673ffffffffffffffffffffffffffffffffffffffff1673ffffffffffffffffffffffffffffffffffffffff16815260200190815260200160002060020160046000600960009054906101000a900473ffffffffffffffffffffffffffffffffffffffff1673ffffffffffffffffffffffffffffffffffffffff1673ffffffffffffffffffffffffffffffffffffffff16815260200190815260200160002060040154604051610b34929190613135565b60405180910390a250505b565b60068181548110610b5157600080fd5b906000526020600020016000915054906101000a900473ffffffffffffffffffffffffffffffffffffffff1681565b60085481565b600260009054906101000a900473ffffffffffffffffffffffffffffffffffffffff1681565b6000606060008073ffffffffffffffffffffffffffffffffffffffff16600960009054906101000a900473ffffffffffffffffffffffffffffffffffffffff1673ffffffffffffffffffffffffffffffffffffffff1603610c26576000806040518060200160405280600081525090925092509250610da5565b600960009054906101000a900473ffffffffffffffffffffffffffffffffffffffff1660046000600960009054906101000a900473ffffffffffffffffffffffffffffffffffffffff1673ffffffffffffffffffffffffffffffffffffffff1673ffffffffffffffffffffffffffffffffffffffff16815260200190815260200160002060020160046000600960009054906101000a900473ffffffffffffffffffffffffffffffffffffffff1673ffffffffffffffffffffffffffffffffffffffff1673ffffffffffffffffffffffffffffffffffffffff16815260200190815260200160002060040154818054610d1e90612b7c565b80601f0160208091040260200160405190810160405280929190818152602001828054610d4a90612b7c565b8015610d975780601f10610d6c57610100808354040283529160200191610d97565b820191906000526020600020905b815481529060010190602001808311610d7a57829003601f168201915b505050505091509250925092505b909192565b600960149054906101000a900460ff1615610dfa576040517f08c379a0000000000000000000000000000000000000000000000000000000008152600401610df190612fd3565b60405180910390fd5b60006008541480610e0c575060085442105b610e4b576040517f08c379a0000000000000000000000000000000000000000000000000000000008152600401610e42906131b1565b60405180910390fd5b6000600760003373ffffffffffffffffffffffffffffffffffffffff1673ffffffffffffffffffffffffffffffffffffffff16815260200190815260200160002090508060050160009054906101000a900460ff1615610ee0576040517f08c379a0000000000000000000000000000000000000000000000000000000008152600401610ed79061321d565b60405180910390fd5b6000816004015403610f27576040517f08c379a0000000000000000000000000000000000000000000000000000000008152600401610f1e90613289565b60405180910390fd5b60018160050160006101000a81548160ff0219169083151502179055508181600601819055506005339080600181540180825580915050600190039060005260206000200160009091909190916101000a81548173ffffffffffffffffffffffffffffffffffffffff021916908373ffffffffffffffffffffffffffffffffffffffff1602179055508060040154600460008573ffffffffffffffffffffffffffffffffffffffff1673ffffffffffffffffffffffffffffffffffffffff168152602001908152602001600020600401600082825461100691906132d8565b92505081905550505050565b6060600380548060200260200160405190810160405280929190818152602001828054801561109657602002820191906000526020600020905b8160009054906101000a900473ffffffffffffffffffffffffffffffffffffffff1673ffffffffffffffffffffffffffffffffffffffff168152602001906001019080831161104c575b5050505050905090565b600581815481106110b057600080fd5b906000526020600020016000915054906101000a900473ffffffffffffffffffffffffffffffffffffffff1681565b600460205280600052604060002060009150905080600001549080600101805461110890612b7c565b80601f016020809104026020016040519081016040528092919081815260200182805461113490612b7c565b80156111815780601f1061115657610100808354040283529160200191611181565b820191906000526020600020905b81548152906001019060200180831161116457829003601f168201915b50505050509080600201805461119690612b7c565b80601f01602080910402602001604051908101604052809291908181526020018280546111c290612b7c565b801561120f5780601f106111e45761010080835404028352916020019161120f565b820191906000526020600020905b8154815290600101906020018083116111f257829003601f168201915b50505050509080600301805461122490612b7c565b80601f016020809104026020016040519081016040528092919081815260200182805461125090612b7c565b801561129d5780601f106112725761010080835404028352916020019161129d565b820191906000526020600020905b81548152906001019060200180831161128057829003601f168201915b5050505050908060040154908060050160009054906101000a900473ffffffffffffffffffffffffffffffffffffffff16908060060180546112de90612b7c565b80601f016020809104026020016040519081016040528092919081815260200182805461130a90612b7c565b80156113575780601f1061132c57610100808354040283529160200191611357565b820191906000526020600020905b81548152906001019060200180831161133a57829003601f168201915b5050505050905087565b606060058054806020026020016040519081016040528092919081815260200182805480156113e557602002820191906000526020600020905b8160009054906101000a900473ffffffffffffffffffffffffffffffffffffffff1673ffffffffffffffffffffffffffffffffffffffff168152602001906001019080831161139b575b5050505050905090565b60608060006060600060606000600460008973ffffffffffffffffffffffffffffffffffffffff1673ffffffffffffffffffffffffffffffffffffffff168152602001908152602001600020600101600460008a73ffffffffffffffffffffffffffffffffffffffff1673ffffffffffffffffffffffffffffffffffffffff168152602001908152602001600020600201600460008b73ffffffffffffffffffffffffffffffffffffffff1673ffffffffffffffffffffffffffffffffffffffff16815260200190815260200160002060000154600460008c73ffffffffffffffffffffffffffffffffffffffff1673ffffffffffffffffffffffffffffffffffffffff168152602001908152602001600020600301600460008d73ffffffffffffffffffffffffffffffffffffffff1673ffffffffffffffffffffffffffffffffffffffff16815260200190815260200160002060040154600460008e73ffffffffffffffffffffffffffffffffffffffff1673ffffffffffffffffffffffffffffffffffffffff168152602001908152602001600020600601600460008f73ffffffffffffffffffffffffffffffffffffffff1673ffffffffffffffffffffffffffffffffffffffff16815260200190815260200160002060050160009054906101000a900473ffffffffffffffffffffffffffffffffffffffff168680546115f990612b7c565b80601f016020809104026020016040519081016040528092919081815260200182805461162590612b7c565b80156116725780601f1061164757610100808354040283529160200191611672565b820191906000526020600020905b81548152906001019060200180831161165557829003601f168201915b5050505050965085805461168590612b7c565b80601f01602080910402602001604051908101604052809291908181526020018280546116b190612b7c565b80156116fe5780601f106116d3576101008083540402835291602001916116fe565b820191906000526020600020905b8154815290600101906020018083116116e157829003601f168201915b5050505050955083805461171190612b7c565b80601f016020809104026020016040519081016040528092919081815260200182805461173d90612b7c565b801561178a5780601f1061175f5761010080835404028352916020019161178a565b820191906000526020600020905b81548152906001019060200180831161176d57829003601f168201915b5050505050935081805461179d90612b7c565b80601f01602080910402602001604051908101604052809291908181526020018280546117c990612b7c565b80156118165780601f106117eb57610100808354040283529160200191611816565b820191906000526020600020905b8154815290600101906020018083116117f957829003601f168201915b505050505091509650965096509650965096509650919395979092949650565b600760205280600052604060002060009150905080600001549080600101805461185f90612b7c565b80601f016020809104026020016040519081016040528092919081815260200182805461188b90612b7c565b80156118d85780601f106118ad576101008083540402835291602001916118d8565b820191906000526020600020905b8154815290600101906020018083116118bb57829003601f168201915b5050505050908060020180546118ed90612b7c565b80601f016020809104026020016040519081016040528092919081815260200182805461191990612b7c565b80156119665780601f1061193b57610100808354040283529160200191611966565b820191906000526020600020905b81548152906001019060200180831161194957829003601f168201915b5050505050908060030160009054906101000a900473ffffffffffffffffffffffffffffffffffffffff16908060040154908060050160009054906101000a900460ff16908060060154908060070180546119c090612b7c565b80601f01602080910402602001604051908101604052809291908181526020018280546119ec90612b7c565b8015611a395780601f10611a0e57610100808354040283529160200191611a39565b820191906000526020600020905b815481529060010190602001808311611a1c57829003601f168201915b5050505050905088565b60018060000154905081565b60606006805480602002602001604051908101604052809291908181526020018280548015611ad357602002820191906000526020600020905b8160009054906101000a900473ffffffffffffffffffffffffffffffffffffffff1673ffffffffffffffffffffffffffffffffffffffff1681526020019060010190808311611a89575b5050505050905090565b60008060000154905081565b60006060806000806000600760008873ffffffffffffffffffffffffffffffffffffffff1673ffffffffffffffffffffffffffffffffffffffff16815260200190815260200160002060000154600760008973ffffffffffffffffffffffffffffffffffffffff1673ffffffffffffffffffffffffffffffffffffffff168152602001908152602001600020600101600760008a73ffffffffffffffffffffffffffffffffffffffff1673ffffffffffffffffffffffffffffffffffffffff168152602001908152602001600020600201600760008b73ffffffffffffffffffffffffffffffffffffffff1673ffffffffffffffffffffffffffffffffffffffff16815260200190815260200160002060030160009054906101000a900473ffffffffffffffffffffffffffffffffffffffff16600760008c73ffffffffffffffffffffffffffffffffffffffff1673ffffffffffffffffffffffffffffffffffffffff16815260200190815260200160002060040154600760008d73ffffffffffffffffffffffffffffffffffffffff1673ffffffffffffffffffffffffffffffffffffffff16815260200190815260200160002060050160009054906101000a900460ff16848054611cbc90612b7c565b80601f0160208091040260200160405190810160405280929190818152602001828054611ce890612b7c565b8015611d355780601f10611d0a57610100808354040283529160200191611d35565b820191906000526020600020905b815481529060010190602001808311611d1857829003601f168201915b50505050509450838054611d4890612b7c565b80601f0160208091040260200160405190810160405280929190818152602001828054611d7490612b7c565b8015611dc15780601f10611d9657610100808354040283529160200191611dc1565b820191906000526020600020905b815481529060010190602001808311611da457829003601f168201915b5050505050935095509550955095509550955091939550919395565b3373ffffffffffffffffffffffffffffffffffffffff16600260009054906101000a900473ffffffffffffffffffffffffffffffffffffffff1673ffffffffffffffffffffffffffffffffffffffff1614611e6d576040517f08c379a0000000000000000000000000000000000000000000000000000000008152600401611e6490613358565b60405180910390fd5b428111611eaf576040517f08c379a0000000000000000000000000000000000000000000000000000000008152600401611ea6906133c4565b60405180910390fd5b600060085414611ef4576040517f08c379a0000000000000000000000000000000000000000000000000000000008152600401611eeb90613430565b60405180910390fd5b8060088190555050565b3373ffffffffffffffffffffffffffffffffffffffff16600260009054906101000a900473ffffffffffffffffffffffffffffffffffffffff1673ffffffffffffffffffffffffffffffffffffffff1614611f8e576040517f08c379a0000000000000000000000000000000000000000000000000000000008152600401611f85906134c2565b60405180910390fd5b611f9860016121be565b6000611fa460016121d4565b90506000600460008873ffffffffffffffffffffffffffffffffffffffff1673ffffffffffffffffffffffffffffffffffffffff168152602001908152602001600020905085816001019081611ffa9190612d59565b508481600201908161200c9190612d59565b50818160000181905550838160030190816120279190612d59565b5060008160040181905550868160050160006101000a81548173ffffffffffffffffffffffffffffffffffffffff021916908373ffffffffffffffffffffffffffffffffffffffff160217905550828160060190816120869190612d59565b506003879080600181540180825580915050600190039060005260206000200160009091909190916101000a81548173ffffffffffffffffffffffffffffffffffffffff021916908373ffffffffffffffffffffffffffffffffffffffff160217905550817fd297f12b256bb8485a6013fb5e302017018123e99a0ebb20756c09e1707b4b9087878785600401548c89604051612128969594939291906134e2565b60405180910390a250505050505050565b6003818154811061214957600080fd5b906000526020600020016000915054906101000a900473ffffffffffffffffffffffffffffffffffffffff1681565b600960009054906101000a900473ffffffffffffffffffffffffffffffffffffffff1681565b6000600380549050905090565b600960149054906101000a900460ff1681565b6001816000016000828254019250508190555050565b600081600001549050919050565b6000604051905090565b600080fd5b600080fd5b600073ffffffffffffffffffffffffffffffffffffffff82169050919050565b6000612221826121f6565b9050919050565b61223181612216565b811461223c57600080fd5b50565b60008135905061224e81612228565b92915050565b600080fd5b600080fd5b6000601f19601f8301169050919050565b7f4e487b7100000000000000000000000000000000000000000000000000000000600052604160045260246000fd5b6122a78261225e565b810181811067ffffffffffffffff821117156122c6576122c561226f565b5b80604052505050565b60006122d96121e2565b90506122e5828261229e565b919050565b600067ffffffffffffffff8211156123055761230461226f565b5b61230e8261225e565b9050602081019050919050565b82818337600083830152505050565b600061233d612338846122ea565b6122cf565b90508281526020810184848401111561235957612358612259565b5b61236484828561231b565b509392505050565b600082601f83011261238157612380612254565b5b813561239184826020860161232a565b91505092915050565b600080600080608085870312156123b4576123b36121ec565b5b60006123c28782880161223f565b945050602085013567ffffffffffffffff8111156123e3576123e26121f1565b5b6123ef8782880161236c565b935050604085013567ffffffffffffffff8111156124105761240f6121f1565b5b61241c8782880161236c565b925050606085013567ffffffffffffffff81111561243d5761243c6121f1565b5b6124498782880161236c565b91505092959194509250565b6000819050919050565b61246881612455565b82525050565b6000602082019050612483600083018461245f565b92915050565b61249281612455565b811461249d57600080fd5b50565b6000813590506124af81612489565b92915050565b6000602082840312156124cb576124ca6121ec565b5b60006124d9848285016124a0565b91505092915050565b6124eb81612216565b82525050565b600060208201905061250660008301846124e2565b92915050565b600081519050919050565b600082825260208201905092915050565b60005b8381101561254657808201518184015260208101905061252b565b60008484015250505050565b600061255d8261250c565b6125678185612517565b9350612577818560208601612528565b6125808161225e565b840191505092915050565b60006060820190506125a060008301866124e2565b81810360208301526125b28185612552565b90506125c1604083018461245f565b949350505050565b600080604083850312156125e0576125df6121ec565b5b60006125ee8582860161223f565b92505060206125ff858286016124a0565b9150509250929050565b600081519050919050565b600082825260208201905092915050565b6000819050602082019050919050565b61263e81612216565b82525050565b60006126508383612635565b60208301905092915050565b6000602082019050919050565b600061267482612609565b61267e8185612614565b935061268983612625565b8060005b838110156126ba5781516126a18882612644565b97506126ac8361265c565b92505060018101905061268d565b5085935050505092915050565b600060208201905081810360008301526126e18184612669565b905092915050565b6000602082840312156126ff576126fe6121ec565b5b600061270d8482850161223f565b91505092915050565b600060e08201905061272b600083018a61245f565b818103602083015261273d8189612552565b905081810360408301526127518188612552565b905081810360608301526127658187612552565b9050612774608083018661245f565b61278160a08301856124e2565b81810360c08301526127938184612552565b905098975050505050505050565b600060e08201905081810360008301526127bb818a612552565b905081810360208301526127cf8189612552565b90506127de604083018861245f565b81810360608301526127f08187612552565b90506127ff608083018661245f565b81810360a08301526128118185612552565b905061282060c08301846124e2565b98975050505050505050565b60008115159050919050565b6128418161282c565b82525050565b60006101008201905061285d600083018b61245f565b818103602083015261286f818a612552565b905081810360408301526128838189612552565b905061289260608301886124e2565b61289f608083018761245f565b6128ac60a0830186612838565b6128b960c083018561245f565b81810360e08301526128cb8184612552565b90509998505050505050505050565b600060c0820190506128ef600083018961245f565b81810360208301526129018188612552565b905081810360408301526129158187612552565b905061292460608301866124e2565b612931608083018561245f565b61293e60a0830184612838565b979650505050505050565b600080600080600060a08688031215612965576129646121ec565b5b60006129738882890161223f565b955050602086013567ffffffffffffffff811115612994576129936121f1565b5b6129a08882890161236c565b945050604086013567ffffffffffffffff8111156129c1576129c06121f1565b5b6129cd8882890161236c565b935050606086013567ffffffffffffffff8111156129ee576129ed6121f1565b5b6129fa8882890161236c565b925050608086013567ffffffffffffffff811115612a1b57612a1a6121f1565b5b612a278882890161236c565b9150509295509295909350565b6000602082019050612a496000830184612838565b92915050565b7f4f6e6c79206f7267616e697a65722063616e206769766520766f74696e67207260008201527f6967687473000000000000000000000000000000000000000000000000000000602082015250565b6000612aab602583612517565b9150612ab682612a4f565b604082019050919050565b60006020820190508181036000830152612ada81612a9e565b9050919050565b7f566f74657220616c72656164792068617320766f74696e672072696768747300600082015250565b6000612b17601f83612517565b9150612b2282612ae1565b602082019050919050565b60006020820190508181036000830152612b4681612b0a565b9050919050565b7f4e487b7100000000000000000000000000000000000000000000000000000000600052602260045260246000fd5b60006002820490506001821680612b9457607f821691505b602082108103612ba757612ba6612b4d565b5b50919050565b60008190508160005260206000209050919050565b60006020601f8301049050919050565b600082821b905092915050565b600060088302612c0f7fffffffffffffffffffffffffffffffffffffffffffffffffffffffffffffffff82612bd2565b612c198683612bd2565b95508019841693508086168417925050509392505050565b6000819050919050565b6000612c56612c51612c4c84612455565b612c31565b612455565b9050919050565b6000819050919050565b612c7083612c3b565b612c84612c7c82612c5d565b848454612bdf565b825550505050565b600090565b612c99612c8c565b612ca4818484612c67565b505050565b5b81811015612cc857612cbd600082612c91565b600181019050612caa565b5050565b601f821115612d0d57612cde81612bad565b612ce784612bc2565b81016020851015612cf6578190505b612d0a612d0285612bc2565b830182612ca9565b50505b505050565b600082821c905092915050565b6000612d3060001984600802612d12565b1980831691505092915050565b6000612d498383612d1f565b9150826002028217905092915050565b612d628261250c565b67ffffffffffffffff811115612d7b57612d7a61226f565b5b612d858254612b7c565b612d90828285612ccc565b600060209050601f831160018114612dc35760008415612db1578287015190505b612dbb8582612d3d565b865550612e23565b601f198416612dd186612bad565b60005b82811015612df957848901518255600182019150602085019450602081019050612dd4565b86831015612e165784890151612e12601f891682612d1f565b8355505b6001600288020188555050505b505050505050565b600060e0820190508181036000830152612e45818a612552565b90508181036020830152612e598189612552565b9050612e6860408301886124e2565b612e75606083018761245f565b612e826080830186612838565b612e8f60a083018561245f565b81810360c0830152612ea18184612552565b905098975050505050505050565b7f566f74696e6720656e642074696d65206e6f7420736574000000000000000000600082015250565b6000612ee5601783612517565b9150612ef082612eaf565b602082019050919050565b60006020820190508181036000830152612f1481612ed8565b9050919050565b7f566f74696e6720706572696f64206e6f7420656e646564000000000000000000600082015250565b6000612f51601783612517565b9150612f5c82612f1b565b602082019050919050565b60006020820190508181036000830152612f8081612f44565b9050919050565b7f57696e6e657220616c7265616479206465636c61726564000000000000000000600082015250565b6000612fbd601783612517565b9150612fc882612f87565b602082019050919050565b60006020820190508181036000830152612fec81612fb0565b9050919050565b7f4e487b7100000000000000000000000000000000000000000000000000000000600052603260045260246000fd5b50565b6000613032600083612517565b915061303d82613022565b600082019050919050565b6000819050919050565b600061306d61306861306384613048565b612c31565b612455565b9050919050565b61307d81613052565b82525050565b6000604082019050818103600083015261309c81613025565b90506130ab6020830184613074565b92915050565b600081546130be81612b7c565b6130c88186612517565b945060018216600081146130e357600181146130f95761312c565b60ff19831686528115156020028601935061312c565b61310285612bad565b60005b8381101561312457815481890152600182019150602081019050613105565b808801955050505b50505092915050565b6000604082019050818103600083015261314f81856130b1565b905061315e602083018461245f565b9392505050565b7f566f74696e672068617320656e64656400000000000000000000000000000000600082015250565b600061319b601083612517565b91506131a682613165565b602082019050919050565b600060208201905081810360008301526131ca8161318e565b9050919050565b7f596f75206861766520616c726561647920766f74656400000000000000000000600082015250565b6000613207601683612517565b9150613212826131d1565b602082019050919050565b60006020820190508181036000830152613236816131fa565b9050919050565b7f596f7520646f206e6f74206861766520766f74696e6720726967687473000000600082015250565b6000613273601d83612517565b915061327e8261323d565b602082019050919050565b600060208201905081810360008301526132a281613266565b9050919050565b7f4e487b7100000000000000000000000000000000000000000000000000000000600052601160045260246000fd5b60006132e382612455565b91506132ee83612455565b9250828201905080821115613306576133056132a9565b5b92915050565b7f4f6e6c79206f7267616e697a6572000000000000000000000000000000000000600082015250565b6000613342600e83612517565b915061334d8261330c565b602082019050919050565b6000602082019050818103600083015261337181613335565b9050919050565b7f456e642074696d65206d75737420626520696e20667574757265000000000000600082015250565b60006133ae601a83612517565b91506133b982613378565b602082019050919050565b600060208201905081810360008301526133dd816133a1565b9050919050565b7f456e642074696d6520616c726561647920736574000000000000000000000000600082015250565b600061341a601483612517565b9150613425826133e4565b602082019050919050565b600060208201905081810360008301526134498161340d565b9050919050565b7f4f6e6c79206f7267616e697a65722063616e206372656174652063616e64696460008201527f6174657300000000000000000000000000000000000000000000000000000000602082015250565b60006134ac602483612517565b91506134b782613450565b604082019050919050565b600060208201905081810360008301526134db8161349f565b9050919050565b600060c08201905081810360008301526134fc8189612552565b905081810360208301526135108188612552565b905081810360408301526135248187612552565b9050613533606083018661245f565b61354060808301856124e2565b81810360a08301526135528184612552565b905097965050505050505056fea264697066735822122031a7a63fa5183043a404e5ba0fddabbef0764670d56541d424821d4a55aa14a464736f6c634300081c0033",
  "linkReferences": {},
  "deployedLinkReferences": {}
}